:020000040800F2
:1000000028090020350200084B1200080D110008D5
:1000100049120008A10500086D1500080000000045
:100020000000000000000000000000004F12000867
:10003000A3050008000000004D120008511200083E
:100040004F0200084F0200084F0200084F0200084C
:100050004F0200084F0200084F0200084F0200083C
:100060004F0200084F0200084F0200084F0200082C
:100070004F0200084F0200084F0200084F0200081C
:100080004F0200084F0200084F0200080000000065
:100090000000000000000000000000004F02000807
:1000A0004F0200084F0200084F0200084F020008EC
:1000B0004F0200084F020008FD1200084F0200081E
:1000C0004F0200084F0200084F0200084F020008CC
:1000D0004F0200084F0200082D1500080000000024
:1000E0004F0200084F0200084F0200080000000005
:1000F0000000000000000000000000004F020008A7
:10010000000000004F0200084F0200084F020008E4
:1001100000000000000000000000000000000000DF
:100120004F0200084F0200084F0200084F0200086B
:100130004F02000800000000000000000000000066
:100140000000000000000000000000004F02000856
:100150004F0200084F0200084F0200084F0200083B
:100160004F0200084F0200080000000000000000DD
:10017000000000000000000000000000000000007F
:10018000000000004F020008000000000000000016
:100190004F02000800F002F800F03CF80AA090E8D6
:1001A000000C82448344AAF10107DA4501D100F032
:1001B00031F8AFF2090EBAE80F0013F0010F18BFC3
:1001C000FB1A43F001031847DC230000FC23000066
:1001D000103A24BF78C878C1FAD8520724BF30C873
:1001E00030C144BF04680C60704700000023002445
:1001F00000250026103A28BF78C1FBD8520728BF37
:1002000030C148BF0B6070471FB502F0B9F81FBD81
:1002100010B510BD00F078F91146FFF7F5FF01F0B9
:1002200037FE00F096F903B4FFF7F2FF03BC01F0CC
:10023000AEF900000948804709480047FEE7FEE79D
:10024000FEE7FEE7FEE7FEE7FEE7FEE7FEE7FEE786
:1002500004480549054A064B70470000ED120008A6
:100260009501000828030020280900202805002007
:1002700028050020704753EA020C00F069802DE940
:10028000F04B4FF00006002B1FBFB3FA83F503FAC3
:1002900005F424FA05F65E4012BF1643B2FA82F561
:1002A00002FA05F4C5F120051EBF22FA05FC44EA56
:1002B0000C04203556EA044C4FEA144418BF641C61
:1002C0004FF000084FF00009904271EB030C39D356
:1002D000002919BFB1FA81F701FA07F6B0FA80F7E1
:1002E00000FA07F6C7F120071EBF20FA07FC46EA0E
:1002F0000C062037B6FBF4FCA7EB0507103F07F010
:100300001F0BCBF120060CFA0BFB2CFA06F644BFB0
:10031000B3460026202FA4BF5E464FF0000B5BEAD9
:10032000060C08BF4FF0010B19EB0B09ABFB027C6D
:1003300048EB0608C01B06FB02CC0BFB03CC71EBA1
:100340000C01C1E70B46024641464846BDE8F08B2A
:1003500013B54FF000004FF00001AFF30080BDE88F
:100360001C40704710B5002000F077F8FFF750FFF1
:10037000BDE81040012001F00AB9032A40F23080A4
:1003800010F0030C00F0158011F8013BBCF1020FD6
:10039000624498BF11F801CB00F8013B38BF11F857
:1003A000013BA2F1040298BF00F801CB38BF00F86E
:1003B000013B11F0030300F05780083AC0F00880B9
:1003C00051F8043B083A51F804CBA0E80810F5E7CF
:1003D000121D5CBF51F8043B40F8043BAFF30080B2
:1003E000D20724BF11F8013B11F801CB48BF11F827
:1003F000012B24BF00F8013B00F801CB48BF00F8F7
:10040000012B70474FF0000200B513469446964604
:10041000203922BFA0E80C50A0E80C50B1F1200117
:10042000BFF4F7AF090728BFA0E80C5048BF0CC0C5
:100430005DF804EB890028BF40F8042B08BF704723
:1004400048BF20F8022B11F0804F18BF00F8012B95
:100450007047704770477047704710B500F03CF820
:10046000BDE8104000F032B810B5203AC0F00B8063
:10047000B1E81850203AA0E81850B1E81850A0E8A8
:100480001850BFF4F5AF5FEA027C24BFB1E8185002
:10049000A0E8185044BF18C918C0BDE810405FEA72
:1004A000827C24BF51F8043B40F8043B08BF7047EE
:1004B000D20728BF31F8023B48BF11F8012B28BFF3
:1004C00020F8023B48BF00F8012B7047002801D0FC
:1004D00001F05DB87047000010B5002102A000F0E7
:1004E00041F8012010BD0000534947414252543A9F
:1004F0002041626E6F726D616C207465726D696E01
:100500006174696F6E000000754600F045F8AE46F4
:1005100005006946534620F00700854618B020B50F
:10052000FFF796FEBDE820404FF000064FF00007B1
:100530004FF000084FF0000B21F00701AC46ACE88B
:10054000C009ACE8C009ACE8C009ACE8C0098D46F8
:10055000704710B50446AFF300802046BDE8104058
:10056000FFF761BE70B505460C460A2000E06D1C21
:1005700001F00EF835B128780028F8D102E0641CAB
:1005800001F006F814B120780028F8D1BDE87040D9
:100590000A2000F0FDBF000000487047C80200209C
:1005A000FEE7704772B6FEE72DE9F84FDFF8B8A115
:1005B0000022012403254FF00F090AF1040BAAF1D0
:1005C000040E00BF0B6804FA02F63340B34273D145
:1005D0000F7907F00307012F01D0022F16D187688A
:1005E0004FEA420805FA08FC27EA0C07D1F80CC0CC
:1005F0000CFA08FC4CEA070CC0F808C04768B7437F
:100600000E79C6F3001696403E4346600E79F643D7
:10061000B6070DD0C768560005FA06FC27EA0C0796
:10062000D1F808C00CFA06FC4CEA070CC0F80CC064
:100630000E7906F00306022E10D1D60800EB8608CC
:10064000D8F8206057074FEAD76C09FA0CF7BE4379
:100650000F6907FA0CF73743C8F8207006684FEAAD
:10066000420C05FA0CF7BE430F7907F0030707FAAF
:100670000CF7374307604E6816F4403F6DD03B4E91
:10068000376847F480473760366822F0030706F47E
:1006900080460096364E07EB060CDCF80868970794
:1006A0003F0F09FA07F826EA0806DFF8C880404538
:1006B00003D14FF000081EE04FE0DFF8BC8040455A
:1006C00002D14FF0010816E0DFF8B080404502D1BA
:1006D0004FF002080FE0DFF8A880404502D14FF04C
:1006E000030808E0DFF89C80404502D14FF0040881
:1006F00001E04FF0070808FA07F848EA0608CCF8C6
:100700000888DAF800605746D1F804C09E435FEAD3
:10071000CC2C00D51E433E60DBF800605F46D1F86C
:1007200004C09E435FEA8C2C00D51E433E60DEF879
:1007300000607746D1F804C09E435FEA8C3C00D548
:100740001E433E60084F083F3E68D1F804C09E43F8
:100750005FEACC3C00D51E433E60521C102AFFF4D9
:1007600031AFBDE8F88F0000083C0140443802403A
:100770000030014000000240000402400008024036
:10078000000C0240001002400AB181617047090468
:10079000FBE700000148806870470000000000206F
:1007A000024881680278114481607047000000208F
:1007B0000B4810B5016841F400710160016841F413
:1007C00080610160016841F480710160032000F0E4
:1007D00071F8002000F006F800F024F8002010BDA9
:1007E000003C024070B50D4D04464FF47A712878F4
:1007F000B1FBF0F00A490968B1FBF0F000F00CFB26
:1008000048B9102C07D200222146501E00F032F8C1
:1008100000206C6070BD012070BD00000000002051
:100820000C0000200B4882B0016841F48041016057
:10083000006800F4804000900648001F016841F005
:1008400080510160006800F080500090052002B0E7
:1008500000F030B844380240002809DB00F01F02E5
:10086000012191404009800000F1E020C0F8001112
:1008700070470000F0B40E4B1B680C46C3F3022314
:10088000C3F10705042D00D90425191D072901D23C
:10089000002300E0DB1E012606FA05F1491E214077
:1008A00099409E40761E16403143F0BC00F05FBE7A
:1008B0000CED00E0064900F0070208684FF6FF0360
:1008C000184040EA0220034A1043086070470000C5
:1008D0000CED00E00000FA052DE9F0470E4605009A
:1008E00065D0DFF81481D8F80000F7B200F00700F7
:1008F000B04207D288F80070D8F8000000F0070076
:10090000B04254D128683D4C810712D5400703D529
:10091000206840F4E05020602878000703D5206864
:1009200040F4604020602068A96820F0F00008438F
:1009300020602878C0072DD0304968680839012820
:1009400012D0022813D0032811D009688907002982
:100950002DDA216821F0030101432160FFF71AFF1E
:10096000814641F2883A0EE009688903EFE7096899
:100970008901ECE7FFF70EFFA0EB0901514502D911
:100980000320BDE8F0872068696800F00C00B0EB38
:10099000810FEFD1D8F80010404601F00701B142B5
:1009A00007D90770006800F00700B04201D00120AD
:1009B000E7E72878400705D52068E96820F4E0508B
:1009C000084320602878000706D52068296920F4AC
:1009D000604040EAC100206000F038F82168084A11
:1009E000C1F30311515CC84006490860064800681D
:1009F000FFF7F8FE0020C4E7003C02400838024040
:100A00008A2300080C000020040000200448054947
:100A100000680968044AC1F38221515CC8407047EC
:100A20000C000020083802409A23000804480549B9
:100A300000680968044AC1F34231515CC8407047FC
:100A40000C000020083802409A230008154810B511
:100A5000006810F00C02144813D04110042A0FD083
:100A6000082A0ED10F4C241F2268236802F03F028F
:100A70005B0207D52068C0F38810A0FB010106E0E7
:100A8000084610BD2168C1F38811A1FB00010023B5
:100A9000FFF7F1FB2168C1F30141491C4900B0FB9C
:100AA000F1F010BD083802400024F4002DE9F84FA1
:100AB00004006ED02078DFF84C93C007A9F104053C
:100AC0004AD009F104000168C1F38101012908D06D
:100AD0000068C0F3810002280AD1D9F80000400262
:100AE00006D52868800337D560680028E1D033E058
:100AF0006068B0F5803F10D0B0F5A02F286810D006
:100B000020F480302860286820F480202860606805
:100B1000A8B1FFF73FFE06460DE0286840F480309C
:100B2000F4E740F480202860F7E700BFFFF732FECB
:100B3000801B642873D828688003F7D50CE0FFF782
:100B400029FE064605E000BFFFF724FE801B64284F
:100B5000F0D828688003F7D42078DFF8AC828007CB
:100B60004FF0000A3ED5A748001D016811F00C0F98
:100B700008D00068C0F3810002280BD1D9F800002A
:100B8000400207D42868800716D5E068012800D104
:100B900012E033E1E068B8B10120C8F80000FFF7C7
:100BA000F9FD064605E000BFFFF7F4FD801B0228B3
:100BB000C0D828688007F7D52868216920F0F80098
:100BC00040EAC10028600DE0C8F800A0FFF7E2FD90
:100BD000064604E0FFF7DEFD801B02281FD82868C8
:100BE0008007F7D42078000722D5864F87486169AF
:100BF000703771B101210160FFF7CCFD064604E0BA
:100C0000FFF7C8FD801B022809D838688007F7D590
:100C10000EE0C0F800A0FFF7BDFD064605E082E04B
:100C2000FFF7B8FD801B02287DD838688007F7D40D
:100C30002078400768D5DFF8CCB100270BF13C0BDA
:100C4000DBF80000C0000BD4DBF8001041F080514D
:100C5000CBF80010DBF80000012700F08050009076
:100C60006B4E3068C00510D4306840F4807030603E
:100C7000FFF790FD009005E0FFF78CFD0099401A0A
:100C8000022850D83068C005F6D55E4EA0686C3694
:100C900001280FD00528306810D020F00100306006
:100CA000306820F004003060A068B8B1FFF772FD32
:100CB00000900FE0306840F00100F4E740F00400DD
:100CC0003060F7E7FFF766FD0099411A41F288307E
:100CD000814266D830688007F4D50EE0FFF75AFDF0
:100CE000009007E0FFF756FD0099411A41F2883065
:100CF000814256D830688007F4D42FB1DBF8001059
:100D000021F08051CBF80010A069C8B33D49091DFE
:100D10000968C1F3810102294AD00228504607D050
:100D2000C8F8600000E03CE0FFF734FD04463BE01B
:100D30004746C8F86000FFF72DFD064605E000BFF6
:100D4000FFF728FD801B02282BD828688001F7D4E4
:100D5000D4E907010843A16A2E4A490802EB014180
:100D6000626A41EA8211084394F82C1040EA01615A
:100D7000C9F8001001203866FFF70CFD044606E0B4
:100D80003EE000BFFFF706FD001B022809D82868D7
:100D90008001F7D534E000BFFFF7FCFC001B022800
:100DA00002D90320BDE8F88F28688001F4D427E039
:100DB0000128F7D0D9F80000E26900F480019142DF
:100DC0001CD1226A00F03F01914217D147F6C07151
:100DD000626A0140B1EB821F10D1A26A4FF0FF336B
:100DE00000F4403103EB5202B1EB024F06D194F80C
:100DF0002C1000F07060B0EB016F01D00120D1E742
:100E00000020CFE70438024000004742800E4742EE
:100E1000007000400000FFFF10B5401EB0F1807F61
:100E200001D3012010BD4FF0E02460610F21601755
:100E300000F09DFB0020A06107202061002010BD74
:100E400070B590F83C20012A2CD0012480F83C4059
:100E5000022280F83D2003685A689D6822F07006DF
:100E60000A6832435A60104B02689A420ED0B2F1BF
:100E7000804F0BD00D4B9A4208D00D4B9A4205D0B3
:100E80000C4B9A4202D00C4B9A4204D1496825F08F
:100E900080031943916080F83D40002180F83C10A8
:100EA000084670BD022070BD0000014000040040F3
:100EB00000080040000C00400040014010B5040054
:100EC00003D094F83D0010B107E0012010BD0020D0
:100ED00084F83C00204600F01FF8022084F83D0012
:100EE000211D206800F01AFA012084F8460084F8D9
:100EF0003E0084F83F0084F8400084F8410084F804
:100F0000420084F8430084F8440084F8450084F8E3
:100F10003D00002010BD000008B500680B49884264
:100F200012D10B48016841F0040101600068002201
:100F300000F00400009002211E20FFF79BFCBDE89A
:100F400008401E20FFF788BC08BD000000080040D4
:100F50004038024070B5044690F83C000025012856
:100F600017D0012684F83C60022084F83D002068F8
:100F7000826822F0770222F47F428260086850285B
:100F800038D00DDC20284FD005DC90B3102811D1CB
:100F90004AE0022070BD302846D040280AD13BE00C
:100FA00060282FD070280DD0B0F5805F03D0B0F549
:100FB000005F12D0012584F83D60002084F83C00D9
:100FC000284670BDCB68D1E90121206800F0F2F914
:100FD0002068816841F0770109E0CB68D1E90121FF
:100FE000206800F0E7F92068816841F48041816061
:100FF000E1E719E0CA684968206800F0EDF950217E
:10100000206806E0CA684968206800F0F6F96021A7
:10101000206800F0D9F9CEE7CA684968206800F076
:10102000DBF940212068F4E7226801461046F0E72A
:1010300070B5040004D094F83D00002510B106E01E
:10104000012070BD84F83C50204600F023F8242095
:1010500084F83D002068C16821F40051C160204639
:1010600000F0DEF92068016921F4904101612068F7
:10107000416921F02A0141612068C16841F40051B1
:10108000C1602564202084F83D0084F83E000020E3
:1010900070BD000010B586B0044614216846FFF705
:1010A000B1F917492068884227D116480021026803
:1010B00042F400320260006800F4003005901148EC
:1010C0001038026842F001020260006800F001007E
:1010D00005900C2000900220CDE901010720CDE908
:1010E000031069460848FFF75FFA00220121262015
:1010F000FFF7C0FB2620FFF7AFFB06B010BD0000D6
:10110000004400404038024000000240FEE700007A
:1011100030B587B014216846FFF774F91F480024E2
:10112000016841F004010160016801F004010591CA
:10113000016841F080010160016801F080010591C2
:10114000016841F001010160016801F001010591B0
:10115000016841F0020101600068114D00F00200D9
:101160000590002220212846FFF70EFB4FF4005087
:1011700000904FF40410CDE9010469460948FFF7D7
:1011800013FA202000900120CDE901046946284689
:101190000394FFF709FA07B030BD00003038024071
:1011A000000002400008024010B586B00024174835
:1011B00000940194029403940494134905940160EB
:1011C00042F2CF01C0E901140121C0E90314846196
:1011D000FFF774FE08B1FFF7E5F94FF48050009077
:1011E00069460A48FFF7B6FE08B1FFF7DBF9049439
:1011F00004A906480594FFF723FE002801D0FFF755
:10120000D1F906B010BD000000080040E000002049
:101210000C4810B50A4901604FF4E13141600021EA
:1012200081600C22C160C0E904128161C161FFF7D5
:10123000FFFE002803D0BDE81040FFF7B3B910BD92
:101240000044004028010020FEE7FEE77047704799
:10125000FFF7A6BA30B593B030216846FFF7D2F851
:1012600014210CA8FFF7CEF81E480025016841F0B4
:1012700080510160006800F0805011901A480168A8
:1012800021F4404141F4004101600068022400F46F
:1012900040401190012000904FF4A0200190600583
:1012A000CDE90640042008905420CDE90904072028
:1012B0000B906846FFF7FAFB08B172B6FEE70CA97F
:1012C0000F2081E831004FF48050CDE90F05022155
:1012D0000CA8FFF701FB002801D072B6FEE713B09F
:1012E00030BD0000403802400070004002480168F4
:1012F00041F470010160704788ED00E00548006826
:101300000169C90705D06FF0010101610248006859
:1013100000477047E000002038000020F0B5026868
:101320001D4B1E4C9F031E4D1E4E984207D0B842C7
:1013300005D0A04203D0A84201D0B04204D122F08F
:10134000700C4A6842EA0C02984210D0B8420ED0A3
:10135000A0420CD0A8420AD0B04208D0124CA04201
:1013600005D0124CA04202D0114CA04203D122F46D
:101370004074CA6822434C6922F080022243026012
:101380008A68C2620A688262984201D1096901636F
:1013900001214161F0BD0000000001400004004057
:1013A00000080040000C00400040014000440140A3
:1013B0000048014010B5846842EA032224F47F44C7
:1013C0000A432243826010BD826822F070020A4301
:1013D00042F007018160704710B5036A046A24F087
:1013E00001040462846924F0F00444EA021423F046
:1013F0000A020A438461026210BD10B5036A23F039
:10140000100303628369046A23F4704343EA0232DF
:1014100024F0A00343EA01118261016210BD0000C3
:1014200070B5044600680169E26821F44051114337
:1014300001612169A068E2690843616911430843B9
:101440002168CA6849F20C639A430243CA60206863
:101450004169A26921F44071114341613149206819
:10146000884202D03049884202D1FFF7DFFA01E01A
:10147000FFF7CCFAE2690023192164253226B2F580
:10148000004F626828D0A0FB0101930F9200FEF785
:10149000F2FE0146B0FBF5F06FF01802504301EB8D
:1014A000800006EB0010B0FBF5F000F0F002B1FB9D
:1014B000F5F002EB0012B1FBF5F06FF018035843A2
:1014C00001EB800006EB0010B0FBF5F000F00F0020
:1014D00021681044886070BDA0FB010192185B4137
:1014E000FEF7C9FE0146B0FBF5F00201B1FBF5F0D5
:1014F0006FF01803584301EB800006EBC000B0FB0F
:10150000F5F000F0F80002EB4002B1FBF5F05843B3
:1015100001EB800006EBC000B0FBF5F000F0070027
:10152000D6E70000001001400014014010B50C4C3B
:1015300020680168890605D56FF02001016009481F
:101540000068804720680168090607D56FF08001B0
:10155000016005480068BDE81040004710BD00006C
:10156000280100203000002034000020FEE7090799
:10157000090E002804DB00F1E02080F80014704719
:1015800000F00F0000F1E02080F8141D7047704754
:101590007047000070B50A4D084600240A2116461F
:1015A000E9700722314600F005FE012805D144F616
:1015B000206000F02DFE012800D00324204670BDDD
:1015C000BC0000202DE9F0410F4C07461646A088CC
:1015D00088460025FF2801D9FEF7C4FEA08803280D
:1015E00004D3A188A06800F086FC18B10525284620
:1015F000BDE8F081A06810F8011B3970A188891E30
:101600003180C8F80000F2E7BC00002070B5104C33
:1016100003460025607810B10525284670BD491E97
:101620000126E1600846E6800B70E1881144E18004
:10163000E18800F060FC0146E088A2680244401C9A
:10164000E080117026700121002000F077FCE4E7B3
:10165000BC00002010B50021012000F06FFC034900
:1016600000204870BDE8104000F094BDBC00002090
:1016700010B50021084600F061FCBDE8104000F004
:1016800075BC000070B5064D00242878012802D0F2
:101690000624204670BD2869804700202870F8E79E
:1016A0001000002070B50C460988002505292FD1AF
:1016B000417840F2CF760A0281781143C278491C02
:1016C0001302027989B21A43531EB34220D2002377
:1016D0002380012300F8013B2688761C26805607CC
:1016E00003D003EBD203DEB201E0C2F3C70600F879
:1016F000016B23885B1C2380002300F0EBFA18B1F8
:1017000000F0DFFB054604E020883044208000E044
:101710000325284670BD70B50C46098800250529AB
:101720002FD1417840F2CF760A0281781143C278F6
:10173000491C1302027989B21A43531EB34220D2C4
:1017400000232380022300F8013B23885B1C2380B5
:10175000530704D0012303EBD203DEB201E0C2F34E
:10176000C70600F8016B23885B1C238000F0FCFA9D
:1017700018B100F0A6FB054604E020883044208024
:1017800000E00325284670BD70B50C460988002688
:10179000052925D1417805790A0281781143491C30
:1017A0006A1E89B27C2A1BD800222280032200F8FC
:1017B000012B22880023521C22806A0000F8012B92
:1017C0002288521C22802A4600F00EFB18B100F03D
:1017D00078FB064605E0208800EB4500208000E00D
:1017E0000326304670BD70B50C46098800260529D1
:1017F00027D1417805790A0281781143C278491CC2
:1018000045EA02256A1E89B27C2A1AD20022228069
:10181000042200F8012B2288521C22806A0000F862
:10182000012B2288521C22802A4600F009FB18B1A5
:1018300000F047FB064605E0208800EB45002080CD
:1018400000E00326304670BD2DE9F04104460888CB
:1018500000270D460A2842D3607826790102A07835
:10186000227A0843401C1FFA80F8E07846EA0026F6
:101870006079731E0102A0790843401C81B2E079AF
:101880007C2B42EA0022607A28D83AB3792A25D8FC
:10189000B0EB420F22D1012304F10A0000F0A4FAB8
:1018A00098B900212980172121702988601C491CC2
:1018B0002980710000F8011B29880023491C298018
:1018C0003246414600F090FA18B100F0FAFA0746A5
:1018D00005E0288800EB4600288000E00327384612
:1018E000BDE8F08170B5064C0D4606492288401CC3
:1018F000FEF743FD2088401C2880002070BD0000BA
:10190000CC0000206C01002038B50988002405298E
:101910000BD141780A0281781143491C027989B2BE
:101920001AB9C278FF2A03D012B10324204638BD69
:1019300000228DF80120C078FF280CD08DF80020FF
:1019400001231A46684600F0C5F90028EED000F0E1
:10195000B8FA0446EAE701208DF80000F0E710B578
:1019600009880024052902D00324204610BD4178AF
:1019700001230A028178C01C1143491C89B21A460E
:1019800000F032FA0028F0D000F09BFA0446ECE7B1
:101990002DE9F0410D4609880024052926D9417812
:1019A00043790A0281781143491C8EB2C1780279C9
:1019B00042EA0122510704D0012101EBD201C9B250
:1019C00001E0C2F3C701571EB7F5F66F0ED2994278
:1019D0000CD101233146801D00F07CF918B100F0D4
:1019E00070FA044603E00520288000E00324204626
:1019F000BDE8F08170B50D460988002406291DD385
:101A000041780A0281781143C278491C1302027995
:101A100089B21A434379561E772E0FD85606360ED2
:101A20009E420BD10123801D00F0DEF918B100F0B9
:101A300048FA044603E00520288000E003242046FD
:101A400070BD00002DE9F0411D46069B1746064675
:101A500041B1F72906D81E4C0846217100211EB15C
:101A6000012E15D002252EE01A4A22611A4A62611F
:101A70001A4AE2601A4AC4E906211A4921621A493F
:101A800061621A49A1622A46394600F099F812E0CB
:101A9000174A2261174A6261174AE260174AC4E98D
:101AA000062117492162174961621749A1622A4636
:101AB0003946FFF76FFD050005D100F063FB28B143
:101AC0006671012020702846BDE8F0810325FAE701
:101AD00010000020A51C0008C11C00084D1C0008B7
:101AE000FD1B00087D22000825230008E5220008D0
:101AF00055160008711600080D160008C5150008D7
:101B0000A91F0008BD2000088D20000838B52B4C07
:101B1000207808B1062038BD684600F025FB012872
:101B20004AD19DF80000E8B3012802D0022843D131
:101B30000FE0224AA369921D911CC81F984788BBD9
:101B400060782179884200D060BB022000F022FB3F
:101B500032E0A0680121194B0278A270E1700021E7
:101B600013F12C0313F8315065B1954207D103EB03
:101B7000C1014A681149891D9047E07002E0491C83
:101B80001029EFDB607868B1E07880B10021E18056
:101B9000A17841F08002A1680A70E288521C92B2DA
:101BA000E28000E008E08854E088401CE080D4E94E
:101BB0000213E28820799847002038BD10000020E9
:101BC00070B51546084600240822294600F0F2FAAE
:101BD00001280DD1B5F5964F01D9232003E0064920
:101BE0006800B1FBF0F080B200F012FB012800D0D9
:101BF0000324204670BD0000A07F17002DE9F041AE
:101C0000104C07461646A08888460025FF2801D9B3
:101C1000FEF7A8FBA088042804D3A1880A4800F096
:101C200077F918B105252846BDE8F0810648007807
:101C30003870A088C01E30800348401CC8F80000DF
:101C4000F1E70000D00000208C01002070B5134C9B
:101C5000034600256078012802D00525284670BD7E
:101C6000491E0126A160084666800B7061881144F8
:101C70006180618800F04CF96188094A5318491C59
:101C800061801870010A60880244401C60801170F5
:101C900026700121002000F051F9DFE7D00000207C
:101CA0008C010020054910B5002048700146012034
:101CB00000F044F9BDE8104000F06AB9D0000020FF
:101CC00010B50021084600F039F9BDE8104000F0D9
:101CD0004DB90000F0B5541EE51704EB557401250D
:101CE000491E05EBE40489B200278D18A4B20A2D21
:101CF00001D90120F0BD1B4E012B11D02CE000BFFB
:101D000010F8013B082505E003F001077754491C52
:101D100089B25B08521E92B202D36D1EEDB2F3D2AD
:101D2000641EA4B2ECD21AE0002508230CE000BF28
:101D300016F801C00CFA05FC491C4CEA070C6D1C96
:101D40000CF0FF0789B2EDB2521E92B202D35B1EB5
:101D5000DBB2EDD200F8017B641EA4B2E4D2002015
:101D6000F0BD0000B4020020F0B5491E1FFA81FE4C
:101D7000511ECB1701EB5371012404EBE1018BB22F
:101D800000270EEB020517490A2D1AD90120F0BDD4
:101D9000002608250DE000BF11F80EC0BCF1000FB1
:101DA00005D004FA06FC4CEA070C0CF0FF07761C81
:101DB000F6B2521E92B202D36D1EEDB2ECD200F812
:101DC000017B5B1E9BB2E3D200200A5C3AB1002289
:101DD0000A54401C80B20A28F7D30020F0BD01222B
:101DE000F6E70000BE02002010B5491E89B28C182B
:101DF0000A2C01D9012010BD104C012B09D018E08C
:101E000030F8023B5BBA24F81130491C521E89B2EB
:101E100092B2002AF4D10EE034F811301B0A00F817
:101E2000013B14F81130491C521E00F8013B89B2E5
:101E300092B2002AF0D1002010BD0000A0020020C4
:101E4000491E10B58BB29C1810490A2C0FD90120DD
:101E500010BD00BF31F81340240A00F8014B11F8FF
:101E600013405B1C521E00F8014B9BB292B2002A39
:101E7000F0D1002031F81020521C21F81020401C15
:101E800080B20A28F6D3002010BD00008C0200208A
:101E900008B5FEF78DFCFFF7DDF9FFF739F9FFF71D
:101EA00083F9FFF7B5F900204FF4E1330246012131
:101EB0000090FFF7C7FDFFF7E5FB00BFFFF726FE29
:101EC000FCE7002804D0012803D0072803D0042011
:101ED0007047022070470620704710B5092801D8C6
:101EE000303004E0A0F10A01052902D83730C0B231
:101EF00010BDFEF737FA002203E010F8013B1A4448
:101F0000D2B2491E89B2F8D25042C0B27047000026
:101F100070B5094DFF231A4605F5807606E000BF2F
:101F200010F8014B54402A5D5A40335D491E89B276
:101F3000F6D242EA032070BDA22300080A4B002813
:101F40001A68D06802D040F0200001E020F02000A4
:101F5000D06018680029C16802D041F0800101E01A
:101F600021F08001C1607047280100200748006807
:101F7000016A41F21112114207D1016A9210114215
:101F800003D1016821F0010101607047E0000020E9
:101F900004480021026851620068016841F00101B3
:101FA00001607047E0000020F8B5374C002720782A
:101FB00008B1FEF7D7F9684600F0F4F8607800251C
:101FC000012670B3012802D002285AD139E0FFF768
:101FD000DFFF9DF800003A2807D00D2808D0A0F1B7
:101FE0003001092907D8C8B20DE0A570A58048E0E6
:101FF0000220607045E0A0F14101052902D8373880
:10200000C0B200E0FF20A17811B1012939D10DE063
:10201000A188FF2906D8A288A16800018854A6706B
:102020002FE025E06570FFF7A1FF2AE0A288A168F4
:1020300011440A7802430A70A088401CA080A57051
:102040001FE09DF80000E178884207D1FFF78EFF7E
:102050006570012000F09EF8074612E03A2801D092
:1020600065700EE0A570A5806670FFF791FF08E02F
:102070009DF800003A2804D1FFF78AFFA580A570DB
:1020800066703846F8BD0000BC0000200A4810B554
:102090004178012909D0022907D04178012906D0C9
:1020A0004078022803D0FEF75DF900214170FFF768
:1020B0005DFF002010BD0000BC00002070B5294C61
:1020C0000026607808B1FEF74DF920780025052834
:1020D00046D2DFE800F041030A3136003A2000F032
:1020E00091F802202070A5703AE0E088F0B1A17864
:1020F0001C48C06811B1012932D108E000780009FC
:10210000FFF7EBFE00F07EF80120A07028E00078D9
:1021100000F00F00FFF7E1FE00F074F8E068401CEB
:10212000E060A570E088401EE08019E00D2000F01E
:1021300069F80320207013E0E07800F063F80420D1
:10214000F8E72570032000F025F80646002101205D
:10215000FFF7F4FE257003E000210120FFF7EEFEFB
:10216000304670BDBC0000200549024600204B7877
:10217000002B04D0087810700020487001207047B0
:10218000DC00002002490020487001207047000058
:10219000DC000020024901224A7008701046704796
:1021A000DC0000200249096801700120704700002E
:1021B00004440040124810B5104AC0E90021002133
:1021C0000C22C160C0E905214FF48052C161012B8E
:1021D00009D0022B0AD0016181600948FEF728FF6F
:1021E00048B1002010BD4FF4C06101E04FF48061A0
:1021F00082600161F1E7012010BD00000044004051
:102200002801002001490860012070470444004073
:1022100030B587B00024184D0094019402940394C3
:10222000049414490594296040F60F61401E6960CA
:10223000C5E902402C612846AC61FEF73FFE70B94B
:102240004FF48050009069462846FEF783FE30B96F
:10225000049404A928460594FEF7F2FD10B100206D
:1022600007B030BD2868C16841F00101C16001209C
:10227000F6E7000000080040E000002038B5174CE9
:102280000025207808B1FEF76DF86846FFF78AFF51
:10229000607830B1124A012807D0022810D00328F4
:1022A00001D1FFF775FE284638BD0020A0809DF8BB
:1022B0000000A1880A44491CA180107002200BE094
:1022C000A088FF2807D89DF80010A0880244401C71
:1022D000A0801170E5E703206070E2E7D0000020E5
:1022E0008C01002070B50E4D0024687870B1022872
:1022F0000BD003280DD0687858B16878022808D030
:102300006878032805D0FEF72DF80120FFF742FF7B
:102310000446FFF72BFE01206870204670BD0000C8
:10232000D000002070B5154C00256078012801D040
:10233000FEF718F8207810B101281CD104E0002124
:102340000120FFF7FBFD16E0608850B1A06800781F
:10235000FFF758FFA068401CA0606088401E6080A6
:1023600009E00320FFF716FF054600210120FFF7D3
:10237000E5FD00202070284670BD0000D000002040
:102380004FF04070E1EE100A7047000000000000BE
:102390000000010203040607080900000000010212
:1023A000030400C1814001C0804101C0804100C1DF
:1023B000814001C0804100C1814000C1814001C015
:1023C000804101C0804100C1814000C1814001C005
:1023D000804100C1814001C0804101C0804100C1F5
:1023E000814001C0804100C1814000C1814001C0E5
:1023F000804100C1814001C0804101C0804100C1D5
:10240000814000C1814001C0804101C0804100C1C4
:10241000814001C0804100C1814000C1814001C0B4
:10242000804101C0804100C1814000C1814001C0A4
:10243000804100C1814001C0804101C0804100C194
:10244000814000C1814001C0804101C0804100C184
:10245000814001C0804100C1814000C1814001C074
:10246000804100C1814001C0804101C0804100C164
:10247000814001C0804100C1814000C1814001C054
:10248000804101C0804100C1814000C1814001C044
:10249000804100C1814001C0804101C0804100C134
:1024A000814000C0C101C30302C2C60607C705C5FB
:1024B000C404CC0C0DCD0FCFCE0E0ACACB0BC9096C
:1024C00008C8D81819D91BDBDA1A1EDEDF1FDD1D7C
:1024D0001CDC14D4D515D71716D6D21213D311D1AC
:1024E000D010F03031F133F3F23236F6F737F535FC
:1024F00034F43CFCFD3DFF3F3EFEFA3A3BFB39F92C
:10250000F83828E8E929EB2B2AEAEE2E2FEF2DEDFB
:10251000EC2CE42425E527E7E62622E2E323E1216B
:1025200020E0A06061A163A3A26266A6A767A5657B
:1025300064A46CACAD6DAF6F6EAEAA6A6BAB69A9EB
:10254000A86878B8B979BB7B7ABABE7E7FBF7DBDFB
:10255000BC7CB47475B577B7B67672B2B373B1712B
:1025600070B05090915193535292965657975595FB
:1025700094549C5C5D9D5F9F9E5E5A9A9B5B9959AB
:102580005898884849894B8B8A4A4E8E8F4F8D4D7B
:102590004C8C4484854587474686824243834181EB
:1025A00080400000C425000800000020E00000007A
:1025B000D0010008A4260008E00000204808000020
:1025C000EC01000801000000100000000000000005
:1025D0000024F400020000000000000000000000E1
:1025E00000000000000000000000000000000000EB
:1025F00000000000000000000000000000000000DB
:1026000011000000E518000804000000E7170008AA
:10261000030000008917000810000000F5190008E9
:10262000060000005F1900081700000049180008A4
:1026300001000000A51600080500000009190008A7
:102640000F00000091190008020000001717000891
:10265000000000000000000000000000000000007A
:10266000000000000000000000000000000000006A
:10267000000000000000000000000000000000005A
:1026800000000000000000008C010020000000009D
:10269000000000000000000000000000000000003A
:0426A0000000000036
:040000050800019559
:00000001FF
